:100000000C942A000C943C000C943C000C943C0092
:100010000C943C000C943C000C943C000C943C0070
:100020000C943C000C943C000C943C000C943C0060
:100030000C943C000C94AD000C943C000C943C00DF
:100040000C943C000C943C000C943C000C943C0040
:100050000C943C0011241FBECFE5D8E0DEBFCDBF1D
:1000600020E0A0E6B0E001C01D92A837B207E1F79A
:100070000E9480000C9427020C9400008D9A1DBCF5
:100080001CBC83EC99E097BD86BD82E88FBD8BE1F7
:100090008EBD8FEA90E09BBD8ABD909369008093EE
:1000A0006800089587B38B6087BBBA98C09AC19ADD
:1000B000089510BC83E389B98AB188698AB980B58B
:1000C000866880BD08955D9BFECF8CB908951ABAED
:1000D00087E886B980E487B9089597B18F70982B27
:1000E00097B9369A349BFECF8AE18A95F1F700C022
:1000F00024B185B190E0982F8827820F911D089533
:100100000E9459000E943E000E9452000E94670017
:100110007894CFEFD3E0B29B02C0C39A01C0C398DA
:100120008091600090916100892BA9F380E00E948A
:100130006D00BE010E94FF01862F87958827879555
:10014000861B8093710080E00E946D000E94630016
:100150001092610010926000DECF1F920F920FB6D6
:100160000F9211242F933F938F939F93EF93FF93BD
:100170008CB180937000282F217030E0309377008D
:1001800020937600282F227030E030937500209362
:100190007400282F247030E030936D0020936C00A1
:1001A000282F287030E030936B0020936A00282FAE
:1001B000207130E030936F0020936E00807290E0E9
:1001C00090937300809372008091760090917700F5
:1001D000892BC1F18091740090917500892BC1F435
:1001E0008091620090916300019779F4C09AC19A5E
:1001F0002FEF83ED90E3215080409040E1F700C065
:1002000000001092630010926200C09AC1981CC056
:100210008091620090916300892B89F4C09AC19A01
:10022000EFEFF3ED20E3E150F0402040E1F700C0B4
:10023000000081E090E09093630080936200C19A97
:10024000C09802C0C09AC19A80916C0090916D00D4
:10025000892BB9F18091660090916700892B89F50F
:1002600080916800909169008436910524F085366C
:10027000910574F419C09BBD8ABDEFE3FCE9319789
:10028000F1F700C00000019684369105A1F70CC07B
:100290009BBD8ABDEFE3FCE93197F1F700C0000098
:1002A000019784369105A1F784E690E09093690068
:1002B0008093680081E090E09093670080936600EF
:1002C00087C080916A0090916B00892BB9F1809171
:1002D000640090916500892B89F580916800909168
:1002E00069008A3F910524F08B3F910574F419C091
:1002F0009BBD8ABDEFE3FCE93197F1F700C0000038
:1003000001968A3F9105A1F70CC09BBD8ABDEFE322
:10031000FCE93197F1F700C0000001978A3F910591
:10032000A1F78AEF90E0909369008093680081E0E4
:1003300090E090936500809364004AC080916600CD
:1003400090916700019731F0809164009091650071
:100350000197F1F580916A0090916B00892BC1F5AE
:1003600080916C0090916D00892B91F580916800CF
:10037000909169008F3A910524F0803B910574F4C7
:1003800019C09BBD8ABDEFE3FCE93197F1F700C0CE
:10039000000001968F3A9105A1F70CC09BBD8ABD64
:1003A000EFE3FCE93197F1F700C0000001978F3AC5
:1003B0009105A1F78FEA90E090936900809368001F
:1003C000109267001092660010926500109264000F
:1003D00080916E0090916F00892B31F081E090E068
:1003E0009093610080936000FF91EF919F918F91B6
:1003F0003F912F910F900FBE0F901F90189597FB74
:10040000072E16F4009407D077FD09D00E9413023E
:1004100007FC05D03EF4909581959F4F0895709507
:1004200061957F4F0895AA1BBB1B51E107C0AA1F0E
:10043000BB1FA617B70710F0A61BB70B881F991F85
:100440005A95A9F780959095BC01CD010895F8942F
:02045000FFCFDC
:00000001FF
